:060000000A128A11122809
:10000800FE00030EF0000408F1000A08F200831253
:1000180003137F08F3000A128A155D280A128A1151
:100028001528F601F701F801F90183135C30840003
:100038006E300A168A1183270A128A11E330840067
:10004800ED300A168A1183270A128A118317103095
:10005800840054300A168A11832783010A128A15EC
:100068001A2E83120313C301C401C501C601BF01BF
:10007800C001C101C20105308312031751020318E0
:10008800472800300800213051020318012951087F
:100098000319012983120313CB01CC01592801301C
:1000A800CB070318CC0A0030CC074C08803AAD00C7
:1000B80080302D02031D662883120317510883120E
:1000C80003134B020318A328831203134B08103E93
:1000D80084000B3083170002031C53284B08203E72
:1000E80084000B300002031C53284B08303E840068
:1000F8000B300002031C53284B08403E84000B3091
:100108000002031C53284B08103E84000008AD0071
:100118002D08C3004B08203E84000008AD002D08C0
:10012800C4004B08303E84000008AD002D08C5000F
:100138004B08403E84000008AD002D08C60083121D
:10014800031343080319B02844080319B0284508C5
:10015800031D4608031DB228003008008312031748
:100168005108FF3E83120313CB00FF300318003001
:10017800CC00CC1B01294B08103E84000B308317A0
:100188000002031CF9284B08203E84000B300002B3
:10019800031CF9284B08303E84000B300002031C76
:1001A800F9284B08403E84000B300002031CF92854
:1001B8004B08103E84000008AD002D08BF004B0816
:1001C800203E84000008AD002D08C0004B08303EDA
:1001D80084000008AD002D08C1004B08403E840093
:1001E8000008AD002D08C2000129FF30CB07031815
:1001F800CC0AFF30CC07CC1FBF28031343084407A1
:10020800A400A501A50D4408AD00AE01AD09AE09D5
:10021800AD0A0319AE0A43082D07A0002E080318DB
:100228002E0AA1006430A2000030A3000A128A1529
:100238001A210A128A11831203132108A700200821
:10024800A6000A128A156C240A128A118312031353
:100258002508B0002408AF0045084607A400A501FA
:10026800A50D4608AD00AE01AD09AE09AD0A0319EA
:10027800AE0A45082D07A0002E0803182E0AA10073
:100288006430A2000030A3000A128A151A210A124B
:100298008A11831203132108A7002008A6000A1256
:1002A8008A156C240A128A11831203132508B200D6
:1002B8002408B1003F084007A400A501A50D400887
:1002C800AD00AE01AD09AE09AD0A0319AE0A3F088B
:1002D8002D07A0002E0803182E0AA1006430A200E2
:1002E8000030A3000A128A151A210A128A118312F1
:1002F80003132108A7002008A6000A128A156C24F7
:100308000A128A11831203132508B4002408B300C3
:1003180041084207A400A501A50D4208AD00AE01A1
:10032800AD09AE09AD0A0319AE0A41082D07A000B0
:100338002E0803182E0AA1006430A2000030A30082
:100348000A128A151A210A128A1183120313210824
:10035800A7002008A6000A128A156C240A128A111E
:10036800831203132508B6002408B5002F09AD0031
:100378003009AE00AD0A0319AE0A33082D07C700CD
:1003880034080318340A2E07C8003109AD003209B1
:10039800AE00AD0A0319AE0A35082D07C9003608A4
:1003A8000318360A2E07CA004708EA070318EB0A9B
:1003B8004808EB074908E0070318E10A4A08E1077B
:1003C8006B08803AFF0080307F02031DED29323030
:1003D8006A02031CF529013083120313E800003078
:1003E800072A831203136B08803AFF007F307F02CD
:1003F800031D002ACF306A020318092AFF3083122E
:100408000313E800FF30E9000D2A83120313E80103
:10041800E9016108803AFF0080307F02031D162A37
:1004280032306002031C1E2A013083120313DE00DF
:100438000030302A831203136108803AFF007F30AE
:100448007F02031D292ACF3060020318322AFF30A9
:1004580083120313DE00FF30DF00362A83120313F2
:10046800DE01DF0168086904031DE52A5E085F04F0
:10047800031DE52A4808803AFF0080307F02031DEB
:10048800472A013047020318572A831203134709E2
:10049800AD004809AE00AD0A0319AE0A2D08B70031
:1004A8002E08B8005D2A831203134808B8004708CD
:1004B800B7003808803AFF0080307F02031D662AA3
:1004C800143037020318602B831203134A08803A4A
:1004D800FF0080307F02031D732A01304902031890
:1004E800832A831203134909AD004A09AE00AD0AF5
:1004F8000319AE0A2D08B9002E08BA00892A8312FA
:1005080003134A08BA004908B9003A08803AFF00BC
:1005180080307F02031D922A143039020318602BA1
:100528008312031347084804031DA52A49084A04EF
:10053800031DA52A0130E4070318E50A0030E50782
:10054800B32A47084804031DAD2A49084A04031979
:10055800B32A0130DC070318DD0A0030DD0765081F
:10056800803AFF0080307F02031DBC2A0A306402F3
:10057800031C602B831203135D08803AFF00803050
:100588007F02031DC92A02305C02031C602B831200
:10059800031347084804031DD72A49084A04031DC2
:1005A800D72A0130E02A470848040319E32A4908F2
:1005B8004A040319E32A0230E6000030E70001305C
:1005C80008004808803AFF0080307F02031DEE2AA9
:1005D800013047020318FE2A831203134709AD00AE
:1005E8004809AE00AD0A0319AE0A2D08BB002E0853
:1005F800BC00042B831203134808BC004708BB0047
:100608003C08803AFF0080307F02031D0D2B143018
:100618003B020318602B831203134A08803AFF0039
:1006280080307F02031D1A2B0130490203182A2B40
:10063800831203134909AD004A09AE00AD0A031934
:10064800AE0A2D08BD002E08BE00302B83120313FE
:100658004A08BE004908BD003E08803AFF008030C5
:100668007F02031D392B14303D020318602B8312BF
:10067800031347084804031D4B2B49084A04031D6C
:100688004B2B0130E4070318E50A0030E50765083D
:10069800803AFF0080307F02031D542B0A30640229
:1006A800031C602B83120313E801E901DE01DF015B
:1006B800EA01EB01E001E1010030080083120313B5
:1006C80066036704031D6E2B0530E2000030E3006B
:1006D80001300800023066066704031D792B0630D6
:1006E800E2000030E30001300800680A031D852B92
:1006F800690A031D852B5E085F04031D852B0330E3
:10070800002D68036904031D8F2B5E085F04031D19
:100718008F2B0430002D68086904031D992B5E0394
:100728005F04031D992B0230002D68086904031D1E
:10073800A52B5E0A031DA52B5F0A031DA52B0130FF
:10074800002D680A031DFA2B690A031DFA2B5E03A4
:100758005F04031DFA2B6B08803AFF0080307F028C
:10076800031DB82B01306A020318C82B8312031328
:100778006A09F4006B09F500F40A0319F50A74080C
:10078800A0007508A100CE2B831203136B08A100EB
:100798006A08A0006108803AFF0080307F02031DCC
:1007A800D72B013060020318E72B8312031360096B
:1007B800F4006109F500F40A0319F50A7408A200A7
:1007C8007508A300ED2B831203136108A3006008CA
:1007D800A2002308803AF4002108803A7402031D1D
:1007E800F72B20082202031CA52CFD2C68036904A2
:1007F800031D4F2C5E0A031D4F2C5F0A031D4F2C4F
:100808006B08803AFF0080307F02031D0D2C0130F9
:100818006A0203181D2C831203136A09F4006B097A
:10082800F500F40A0319F50A7408A4007508A50070
:10083800232C831203136B08A5006A08A40061081F
:10084800803AFF0080307F02031D2C2C01306002AB
:1008580003183C2C831203136009F4006109F500A6
:10086800F40A0319F50A7408A6007508A700422CB3
:10087800831203136108A7006008A6002708803ABE
:10088800F4002508803A7402031D4C2C2408260223
:10089800031CFB2CA72C680A031DA92C690A031D3D
:1008A800A92C5E0A031DA92C5F0A031DA92C6B083D
:1008B800803AFF0080307F02031D642C01306A02F9
:1008C8000318742C831203136A09F4006B09F500EA
:1008D800F40A0319F50A7408A8007508A9007A2C07
:1008E800831203136B08A9006A08A8006108803AFC
:1008F800FF0080307F02031D832C01306002031843
:10090800932C831203136009F4006109F500F40ABB
:100918000319F50A7408AA007508AB00992C83120C
:1009280003136108AB006008AA002B08803AF400A2
:100938002908803A7402031DA32C28082A020318E8
:10094800A72C0330FE2C0130FE2C68036904031D1C
:10095800042D5E035F04031D042D6B08803AFF001D
:1009680080307F02031DBA2C01306A020318CA2C9A
:10097800831203136A09F4006B09F500F40A0319DA
:10098800F50A7408AC007508AD00D02C8312031367
:100998006B08AD006A08AC006108803AFF0080303F
:1009A8007F02031DD92C013060020318E92C831241
:1009B80003136009F4006109F500F40A0319F50A44
:1009C8007408AE007508AF00EF2C8312031361089A
:1009D800AF006008AE002F08803AF4002D08803A76
:1009E8007402031DF92C2C082E020318FD2C043068
:1009F800FE2C023083120313E2000030E300062DC0
:100A0800003008000130080083120313B2010A16EF
:100A18008A11CE270A128A1192300A128A15D42214
:100A28000A128A1183120313B1003108B200AB30E5
:100A380032060319252D9C3032060319252D003066
:100A48000800AC0107300A128A15C7240A128A1155
:100A5800DB3083120313B1003108A00081300A1281
:100A68008A1560210A128A11F63083120313B10025
:100A78003108A00083300A128A1560210A128A11EF
:100A8800873083120313B1003108A0008E300A1298
:100A98008A1560210A128A1183120313A0019D305E
:100AA8000A128A1560210A128A1183120313A001FF
:100AB8009E300A128A1560210A128A116030831248
:100AC8000313B1003108A0008D300A128A15602185
:100AD8000A128A1100300A128A15E0210A128A11B4
:100AE80002300A128A1570220A128A1101300A127B
:100AF8008A153D210A128A1100300A128A15E1204E
:100B08000A128A11003A031D8B2D0030080032307A
:100B18000A128A15CA200A128A11003A031D962D54
:100B280000300800FF3083120313A300FF30A40035
:100B38000A128A1540220A128A11003A031DA62DAC
:100B480000300800003083120313A300A4000A1227
:100B58008A1510220A128A11003A031DB52D003099
:100B68000800113083120313B1003108A0008C3043
:100B78000A128A1560210A128A11831203132008A7
:100B88002104031DC92D00300800A001A00A9030DF
:100B98000A128A1560210A128A1183120313200887
:100BA8002104031DD92D00300800A0019F300A122E
:100BB8008A1560210A128A1183120313200821045E
:100BC800031DE82D0030080028300A128A159C20E1
:100BD8000A128A11003A031DF32D003008001E3056
:100BE8000A128A15B3200A128A11003A031DFE2D33
:100BF80000300800403083120313B1003108A00010
:100C0800A2300A128A1560210A128A11831203136C
:100C180020082104031D122E0030080002300A1299
:100C28008A15BA230A128A11003A031D1D2E0030B4
:100C3800080000300A128A15F5230A128A11003AB0
:100C4800031D282E0030080001300A128A15B2212F
:100C58000A128A11003A031D332E0030080083124D
:100C68000313A001A4300A128A1560210A128A11FE
:100C78008312031320082104031D442E00300800AA
:100C8800A001A5300A128A1560210A128A1183125E
:100C9800031320082104031D532E00300800A0016F
:100CA800A7300A128A1560210A128A1183120313C7
:100CB80020082104031D622E00300800A001A9307D
:100CC8000A128A1560210A128A1183120313200856
:100CD8002104031D712E00300800C930B10031080D
:100CE800A000A6300A128A1560210A128A118312FE
:100CF800031320082104031D832E00300800A001DF
:100D0800AA300A128A1560210A128A118312031363
:100D180020082104031D922E0030080000300A121A
:100D28008A15A0220A128A11003A031D9D2E00304E
:100D380008000130080083120313D601D401D5013D
:100D48000A128A156F200A128A11003A0319B42E62
:100D58000A168A118B270A128A114139031D782F26
:100D680083120313CD01CE010800AE300A128A1592
:100D7800D4220A128A1183120313CF004F08D60017
:100D880056080319782F113056020318CF2E9030C9
:100D9800A8000130D22EA030A8000030A9005608C3
:100DA800CF00D0010310CF0DD00D0310CF0DD00D03
:100DB8004F08AA005008AB00FC300A128A152325F8
:100DC8000A128A11831203132908D5002808D400AF
:100DD800540A031DF72E550A031DF72EFF30CD00C8
:100DE8000030CE0008005508803AFF0080307F02AE
:100DF800031D002F04305402031C782F83120313A1
:100E0800D701D8015808803ACF005508803A4F02D8
:100E1800031D102F540857020318672F831203135A
:100E28005708903E840083170008CF0083120317E9
:100E38005008103E8400831203134F08800057089F
:100E4800013E903E84000008CF008312031750082B
:100E5800203E8400831203134F0880005708023E87
:100E6800903E84000008CF00831203175008303EDC
:100E78008400831203134F0880005708033E903EF6
:100E880084000008CF00831203175008403E8400F6
:100E9800831203134F0880000130CF004F088312DC
:100EA8000317D007013083120313CF004F088312B2
:100EB8000317D107043083120313D7070318D80A7E
:100EC8000030D807062F0A128A1135200A128A1113
:100ED800003A0319742F0A128A1162230A128A111E
:100EE80083120317D001D101C33083120313D0003A
:100EF800CD30CF00CF0B7E2FD00B7E2FAF300A1214
:100F08008A15D4220A128A1183120313CF004F08BC
:100F1800D3005318B92EC3300313D000CD30CF00FF
:100F2800CF0B942FD00B942F0A128A1162230A1226
:100F38008A11831203136308D2006208D1000A12CF
:100F48008A158520831203135208CE005108CD005C
:100F58000800831603139115003083120313A700AA
:100F68000030A6002730A5001030A4008316031314
:100F78001418EC2F01308312A0000030A1000030BB
:100F8800A2000030A3002008A4022108031C210F9E
:100F9800CE2FCF2FA5022208031C220FD42FD52F26
:100FA800A6022308031C230FDA2FDB2FA70227082A
:100FB800260425042404031DBA2F831603131115D0
:100FC8001119E42F83120313EC01EC0A0030080016
:100FD800831203131308080083120313A4002408C0
:100FE8008038A3002308F50000300A128A157F23F1
:020FF8000800EF
:1010000008308A000408840A8207003465346E348C
:10101000613462346C3465342034733465346E3436
:1010200073346F3472340034673465347334743419
:1010300075347234653420347434653473347434E4
:10104000003449346E3469347434693461346C3436
:1010500069347A346534003473347434203477342A
:1010600072346F346E346734003445347234723401
:101070006F347234003472346934673468347434D1
:1010800000344E344F344E344534003464346F34BD
:1010900077346E3400346E34653461347234003425
:1010A0006C346534663474340034663461347234BC
:0810B000003475347034003483
:1010BA008B1C64280B12ED01ED0A8B100B167308BA
:1010CA00FF0072088A0071088400700E8300FE0E09
:1010DA007E0E0900AF300A128A15D4220A128A1526
:1010EA0083120313AA002A08AB000130AA002A08B7
:1010FA00AB052B03031D83280130080000300800CC
:10110A0083120317D001D10183120313EA01EB0101
:10111A00E001E101E801E901DE01DF01E401E501A5
:10112A00DC01DD01E601E701E201E30108008312C7
:10113A000313A4002408A3002308A000A0300A1265
:10114A008A1560210A128A158312031320082104C2
:10115A00031DB12800300800013008008312031370
:10116A00A4002408A3002308A000A1300A128A15AB
:10117A0060210A128A158312031320082104031D11
:10118A00C828003008000130080083120313A400A5
:10119A002408A3002308A0008B300A128A156021B4
:1011AA000A128A158312031320082104031DDF285B
:1011BA00003008000130080083120313A400240839
:1011CA00A3002308A00089300A128A1560210A1296
:1011DA008A158312031320082104031DF628003000
:1011EA00080001300800740875040319080001306A
:1011FA00F4020030031CF503F50283120313A00165
:10120A00A1012108803AFF0080307F02031D0F29C7
:10121A00DC3020020318F828013083120313A007D8
:10122A000318A10A0030A1070629F401F501831267
:10123A000313201C26292208F4070318F50A230899
:10124A00F50701300310A20DA30DFF3E031D272948
:10125A0001300310A10CA00CFF3E031D2E2920080B
:10126A002104031D1C297508A1007408A0000800A8
:10127A0083120313AB008F300A128A15D4220A1282
:10128A008A1583120313AA002A08AC000330AA00A5
:10129A002A08AB05FC30AA002A08AC052B08AA00CC
:1012AA002A08AC042C08AA002A08A0008F300A12C7
:1012BA008A1560210800F5000A168A1163270A12A6
:1012CA008A1572300A168A11EC270A128A157508CD
:1012DA000A168A11EC270A128A15831203132008A8
:1012EA000A168A11EC270A128A150A168A11692720
:1012FA00013083120313A0000030A10008008312FA
:10130A000313AB00AB300A128A15D4220A128A15CB
:10131A0083120313AA002A08AC000130AA002A0883
:10132A00AB05FE30AA002A08AC052B08AA002A0839
:10133A00AC042C08AA002A08A000AB300A128A15AD
:10134A0060210A128A158312031320082104031D3F
:10135A00B029003008000130080083120313AB00E3
:10136A00A3300A128A15D4220A128A158312031389
:10137A00AA002A08AC000730AA002A08AB05F830F0
:10138A00AA002A08AC052B08AA002A08AC042C08D3
:10139A00AA002A08A000A3300A128A1560210A129C
:1013AA008A158312031320082104031DDE29003045
:1013BA0008000130080083120313AD008F300A12AF
:1013CA008A15D4220A128A1583120313AA002A083C
:1013DA00AC000330AA002A08AD052D08AA00053082
:1013EA000310AA0DFF3E031DF52903102A0DAB00B9
:1013FA002B08AD003F30AA002A08AC052D08AA0028
:10140A002A08AC042C08AA002A08A0008F300A1265
:10141A008A1560210800831203132308A5002508F2
:10142A00A6002408A5002508A7002608A500250867
:10143A00A00086300A128A1560210A128A158312C0
:10144A00031320082104031D2C2A00300800270852
:10145A00A5002508A00087300A128A1560210A1201
:10146A008A158312031320082104031D3E2A003023
:10147A00080001300800831203132308A500250879
:10148A00A6002408A5002508A7002608A500250807
:10149A00A00084300A128A1560210A128A15831262
:1014AA00031320082104031D5C2A003008002708C2
:1014BA00A5002508A00085300A128A1560210A12A3
:1014CA008A158312031320082104031D6E2A003093
:1014DA0008000130080083120313AD008F300A128E
:1014EA008A15D4220A128A1583120313AA002A081B
:1014FA00AC000330AA002A08AD052D08AA00013065
:10150A000310AA0DFF3E031D852A03102A0DAB0006
:10151A002B08AD00F330AA002A08AC052D08AA0052
:10152A002A08AC042C08AA002A08A0008F300A1244
:10153A008A156021080083120313AD00AB300A122A
:10154A008A15D4220A128A1583120313AA002A08BA
:10155A00AC000130AA002A08AD052D08AA002A0706
:10156A00AB002B08AD00FD30AA002A08AC052D08F7
:10157A00AA002A08AC042C08AA002A08A000AB304A
:10158A000A128A1560210A128A1583120313200887
:10159A002104031DD22A00300800013008008312FA
:1015AA000313A8000A168A1163270A128A157230D1
:1015BA000A168A11EC270A128A15831203132808BD
:1015CA000A168A11EC270A128A150A168A115D2749
:1015DA000A128A1573300A168A11EC270A128A151A
:1015EA000A128A11AD270A128A15F50075088312A4
:1015FA000313A9000A168A1175270A128A150A16F0
:10160A008A116927831203132908080001300A1670
:10161A008A1196270A128A15623083120313A400CC
:10162A006530A300A30B172BA40B172B1C2B3830E8
:10163A0083120313A3002308F50000300A128A1547
:10164A007F230A128A15063083120313A300230884
:10165A00F50000300A128A157F230A128A150C3007
:10166A0083120313A3002308F50000300A128A1517
:10167A007F230A128A150A168A117C270800831208
:10168A000313AD0090300A128A15D4220A128A1561
:10169A0083120313AA002A08AC000330AA002A08FE
:1016AA00AD052D08AA0003300310AA0DFF3E031D45
:1016BA00592B03102A0DAB002B08AD00CF30AA001E
:1016CA002A08AC052D08AA002A08AC042C08AA008E
:1016DA002A08A00090300A128A1560210A128A1577
:1016EA008312031320082104031D7D2B00300800F8
:1016FA000130080083120313A20022080A168A1175
:10170A00A1270A128A1575080A168A116F270A1262
:10171A008A1501300A168A1196270A128A15073085
:10172A0083120313A1007D30A000A00B9A2BA10BFA
:10173A009A2B00300A168A1196270A128A150D303A
:10174A0083120313A100FB30A000A00BAA2BA10B4C
:10175A00AA2BAF2B00300A168A11A1270A128A1562
:10176A0000300A168A116F27080083120313AD008E
:10177A00A3300A128A15D4220A128A158312031375
:10178A00AA002A08AC000330AA002A08AD052D08D1
:10179A00AA0004300310AA0DFF3E031DCF2B03102D
:1017AA002A0DAB002B08AD009F30AA002A08AC0511
:1017BA002D08AA002A08AC042C08AA002A08A000AE
:1017CA00A3300A128A1560210A128A15831203139A
:1017DA0020082104031DF32B003008000130080003
:1017EA0083120313AD00A3300A128A15D4220A12F7
:1017FA008A1583120313AA002A08AC000330AA0030
:10180A002A08AD052D08AA0002300310AA0DFF3ED2
:10181A00031D0A2C03102A0DAB002B08AD00E7307C
:10182A00AA002A08AC052D08AA002A08AC042C082C
:10183A00AA002A08A000A3300A128A1560210A12F7
:10184A008A158312031320082104031D2E2C00304D
:10185A0008000130080083120313A600260884003A
:10186A000A128A1500200A128A15003A031908007A
:10187A00260884000A128A1500200A128A150A3AD2
:10188A000319512C260884000A128A1500200A120C
:10189A008A150D3A031D572C0A168A11B7270A1200
:1018AA008A15652C83120313260884000A128A15E6
:1018BA0000200A128A150A168A11C2270A128A15E4
:1018CA00013083120313A5002508A607332C8312BF
:1018DA000313AA01A51F782CA409A509A40A0319B0
:1018EA00A50AAA01AA0AA71F832CA609A709A60A5C
:1018FA000319A70A0130A8002808AA06AB01AC01FF
:10190A00240825040319BA2CA901A90AA51B992C94
:10191A0001300310A40DA50DFF3E031D8E2C0130CE
:10192A00A8002808A9078B2C01300310AB0DAC0DB9
:10193A00FF3E031D9A2C25082702031DA62C240806
:10194A002602031CAF2C2408A6022508031CA703A1
:10195A00A7022B1401300310A50CA40CFF3E031D93
:10196A00B02C0130A902031D992C2A080319C22C94
:10197A00AB09AC09AB0A0319AC0A2C08A5002B0861
:10198A00A400080083120313B0000A168A118B27D9
:10199A000A128A1583120313AD002D08AF002F0A0D
:1019AA00031DD92C003008002C080139AD002D0880
:1019BA00AC00073030020318022D2C080319F32C4F
:1019CA000130AD00300AEB2C0310AD0DFF3E031DB4
:1019DA00E92C2D08AE002E08AF040F2D0130AD0002
:1019EA00300AF92C0310AD0DFF3E031DF72C2D080C
:1019FA00FF3AAE002E08AF050F2D07303006031D43
:101A0A000F2D2C0803190E2D7F30AD002D08AF00C5
:101A1A000F2DAF012F08AD002D08A00080300A124B
:101A2A008A1560210A128A158312031320082104D9
:101A3A00031D212D00300800013008008312031312
:101A4A00AF00B0010A168A1163270A128A1572308A
:101A5A000A168A11EC270A128A15831203132F0811
:101A6A000A168A11EC270A128A1583120313B00187
:101A7A003008AC00AD012B082D02031D462D2A08A3
:101A8A002C020318752D0A168A115D270A128A1567
:101A9A0073300A168A11EC270A128A150A128A1159
:101AAA00AD270A128A1583120313AC0030082807DF
:101ABA00AD0029080318013EAE002D0884008313E7
:101ACA002E1883172C0880000A168A1175270A1205
:101ADA008A15013083120313AC002C08B0073D2D80
:101AEA000A168A116927831203133008AC00AD0164
:101AFA002C08A8002D08A900080083120313B200BD
:101B0A000A128A1585200A128A15FF3083120313D6
:101B1A00B1003108A00083300A128A1560210A1226
:101B2A008A158312031320082104031D9E2D0030F9
:101B3A0008008930B1003108A0008E300A128A15D7
:101B4A0060210A128A158312031320082104031D37
:101B5A00B02D0030080003300A128A1544230A12F5
:101B6A008A15003A031DBB2D0030080083120313A7
:101B7A0032080319CB2D01300A128A15A0220A1243
:101B8A008A15003A031DD62D0030080000300A12CB
:101B9A008A15A0220A128A15003A031DD62D003092
:101BAA00080001300A128A1584210A128A15003A9D
:101BBA00031DE12D003008000A168A11DB270A12DC
:101BCA008A15003A031DEB2D003008008312031317
:101BDA00AC01AC0A03300A128A15C7240A128A1504
:101BEA00003A031DFA2D0030080083120313AC01DA
:101BFA00AC0A02300A128A15C7240A128A15003A58
:101C0A00031D092E0030080083120313AC01AC0A2D
:101C1A0006300A128A15C7240A128A15003A031DC9
:101C2A00182E0030080001300800831203138501C2
:101C3A008601870188018901831603138501013012
:101C4A00860018308700880189018B100B160B1744
:101C5A008B1781011430F4000030F5000A128A153E
:101C6A00F8200A128A150A128A150B230A128A15F3
:101C7A0042300A128A11F0270A128A150F300A1204
:101C8A008A1530240A128A151A3083160313E200C1
:101C9A005E30E1008630E000E00B512EE10B512E60
:101CAA00E20B512E00000A128A1108250A128A151F
:101CBA00003A0319802E0A168A117C270A128A15FD
:101CCA000A168A11AC270A128A151C300A128A15BA
:101CDA0030240A128A151A3083160313E2005E3082
:101CEA00E1008630E000E00B782EE10B782EE20B63
:101CFA00782E00009F2E0A168A117C270A128A154E
:101D0A000A168A11AC270A128A1530300A128A1565
:101D1A0030240A128A151A3083160313E2005E3041
:101D2A00E1008630E000E00B982EE10B982EE20BE2
:101D3A00982E000001300A128A1582250A128A1585
:101D4A00003A0319C82E0A168A117C270A128A1524
:101D5A000A168A11AC270A128A1501300A128A1544
:101D6A0030240A128A151A3083160313E2005E30F1
:101D7A00E1008630E000E00BC02EE10BC02EE20B42
:101D8A00C02E0000E72E0A168A117C270A128A152D
:101D9A000A168A11AC270A128A1527300A128A15DE
:101DAA0030240A128A151A3083160313E2005E30B1
:101DBA00E1008630E000E00BE02EE10BE02EE20BC2
:101DCA00E02E0000831203136D080319E72EED01BC
:101DDA000A128A15F3260A128A15E72E0A128A159A
:101DEA006F200A128A15003A03190800DC2F0A1616
:101DFA008A117C270A128A150A168A11AC270A1236
:101E0A008A1554300A128A1530240A128A151A3091
:101E1A0083120313DB005E30DA008630D900D90B57
:101E2A00142FDA0B142FDB0B142F0000FC2F0A16C9
:101E3A008A117C270A128A150A168A11AC270A12F5
:101E4A008A1541300A128A1530240A128A151A3064
:101E5A0083120313DB005E30DA008630D900D90B17
:101E6A00342FDA0B342FDB0B342F0000FC2F0A1629
:101E7A008A117C270A128A150A168A11AC270A12B5
:101E8A008A154B300A128A1530240A128A151A301A
:101E9A0083120313DB005E30DA008630D900D90BD7
:101EAA00542FDA0B542FDB0B542F0000FC2F0A1689
:101EBA008A117C270A128A150A168A11AC270A1275
:101ECA008A1536300A128A1530240A128A151A30EF
:101EDA0083120313DB005E30DA008630D900D90B97
:101EEA00742FDA0B742FDB0B742F0000FC2F0A16E9
:101EFA008A117C270A128A150A168A11AC270A1235
:101F0A008A1546300A128A1530240A128A151A309E
:101F1A0083120313DB005E30DA008630D900D90B56
:101F2A00942FDA0B942FDB0B942F0000FC2F0A1648
:101F3A008A117C270A128A150A168A11AC270A12F4
:101F4A008A1550300A128A1530240A128A151A3054
:101F5A0083120313DB005E30DA008630D900D90B16
:101F6A00B42FDA0BB42FDB0BB42F0000FC2F0A16A8
:101F7A008A117C270A128A150A168A11AC270A12B4
:101F8A008A153C300A128A1530240A128A151A3028
:101F9A0083120313DB005E30DA008630D900D90BD6
:101FAA00D42FDA0BD42FDB0BD42F0000FC2F0A120C
:101FBA008A119F260A128A15831203134E08003AC1
:101FCA000319E82FBC2F4D08013A03193C2F033A95
:101FDA0003195C2F013A0319FC2E073A03191C2F27
:101FEA00013A03197C2F033A03199C2FBC2F0A16B6
:061FFA008A117C2708009B
:102EBA00831603139114911C0800602F83160313C1
:102ECA001114111C0800662F831603131115111D06
:102EDA0008006C2FF400740883120313880008009A
:102EEA008316031391161116111E0800792FF50186
:102EFA00F50A00300A128A157F230800640080014F
:102F0A00840A0406031900340406842F80300A1246
:102F1A008A15D42283120313AA002A08AB002B08AD
:102F2A000800F400741C9D2F8312031386160800F0
:102F3A008312031386120800F400741CA82F83124C
:102F4A000313061608008312031306120800023040
:102F5A0083120313A3002308F50000300A128A150E
:102F6A007F230800C03083120313A3002308F5004F
:102F7A0000300A128A157F23080083120313A40063
:102F8A002408A3002308F50001300A128A157F23BA
:102F9A000800831603130716871531309300803013
:102FAA009400283083120313940008008312031339
:102FBA00AC01AC0A00300A128A15C7240A168A1113
:102FCA00003A031DEA2F0030080001300800F4001F
:102FDA0083120313EC017408930083160313141964
:102FEA00F22F111F080011151119F92F831203135B
:062FFA00EC01EC0A0800E6
:02400E0032D8A6
:00000001FF
